:020000040800F2
:1000000000500020910D0008C10C0008C90C000828
:10001000D10C0008D90C0008E10C00080000000019
:10002000000000000000000000000000E90C0008D3
:10003000F50C000800000000010D00080D0D00087F
:10004000D90D0008D90D0008D90D0008D90D0008F8
:10005000D90D0008D90D0008D90D0008D90D0008E8
:10006000D90D0008D90D0008D90D0008AD0600080B
:10007000D90D0008D90D0008D90D0008D90D0008C8
:10008000D90D0008D90D0008D90D0008D90D0008B8
:10009000D90D0008D90D0008D90D0008D90D0008A8
:1000A000D90D0008D90D0008D90D0008D90D000898
:1000B000D90D0008D90D0008D90D0008D90D000888
:1000C000D90D0008D90D0008D90D0008D90D000878
:1000D000D90D0008D90D0008D90D0008D90D000868
:1000E000D90D0008D90D0008D90D00080000000046
:1000F0000000000000000000000000000000000000
:0C01000000000000000000005FF808F1A3
:10010C0010B5054C237833B9044B13B10448AFF345
:10011C0000800123237010BD680000200000000047
:10012C008C35000808B5034B1BB103490348AFF3EA
:10013C00008008BD000000006C0000208C35000819
:10014C00034613F8012B002AFBD1181A013870470B
:10015C0080B584B000AF0E4B1B687B600D4B1B68E9
:10016C003B6072B600BF00F049FE7B68BB60BB68A9
:10017C0083F3088800BF3B68FB60074B044A9A6016
:10018C0062B600BFFB68984700BF1037BD4680BD04
:10019C00008800080488000800ED00E080B584B0F9
:1001AC0000AF0E4B1B687B600D4B1B683B6072B63F
:1001BC0000BF00F023FE7B68BB60BB6883F308883C
:1001CC0000BF3B68FB60074B044A9A6062B600BFF5
:1001DC00FB68984700BF1037BD4680BD00C40008BF
:1001EC0004C4000800ED00E0B0B58CB000AF0346CD
:1001FC00FB712A4BBB6200237B61284BFB61012303
:10020C003B620023BB60FB79FB60BB6A5B683B61B4
:10021C0001F074FB07F1080207F1140311461846AC
:10022C0001F054FC034687F8273097F82730002B51
:10023C0001D003232EE0002387F82F3023E097F81A
:10024C002F309B0003F1006101F5044197F82F302A
:10025C009B0030333B4453F8243C00221C4615468B
:10026C0022462B46022001F0D9FA034687F82730A4
:10027C0097F82730002B01D003230BE097F82F3091
:10028C00013387F82F3097F82F30012BD7D901F095
:10029C005BFB002318463037BD46B0BD0084000818
:1002AC00B0B58CB000AF0346FB712A4BBB62002388
:1002BC007B61284BFB6101233B620023BB60BB6A63
:1002CC001B78FB60FB793B6101F018FB07F108021E
:1002DC0007F114031146184601F0F8FB034687F8A2
:1002EC00273097F82730002B01D004232EE0002371
:1002FC0087F82F3023E097F82F309B0003F1006133
:10030C0001F5044197F82F309B0030333B4453F8F0
:10031C00243C00221C46154622462B46022001F0A6
:10032C007DFA034687F8273097F82730002B01D049
:10033C0004230BE097F82F30013387F82F3097F810
:10034C002F30012BD7D901F0FFFA00231846303794
:10035C00BD46B0BD0084000880B594B000AF786095
:10036C002D4BFB642D4BBB6400237B647B681B789B
:10037C0087F843307B6801331B781B021AB27B6809
:10038C0002331B781BB213431BB2A7F840307B68B7
:10039C0003331B781A067B6804331B781B041A433F
:1003AC007B6805331B781B027968063109780B438F
:1003BC001343FB637B6807331B7887F83B3097F854
:1003CC004330174A1360B7F84030154A5360144A4B
:1003DC00FB6B936097F83B30114AD36001F08EFAB7
:1003EC00BB6C1B780A2B02D00B2B07D00DE0002323
:1003FC00BB62094B3B6301237B6306E00023BB62BA
:10040C00054B3B6301237B6300BF01F09DFA002386
:10041C0018465037BD4680BD008000080084000897
:10042C008400002080B58AB000AF00237B600023DD
:10043C00BB6000BF0021134801F097F80346002B66
:10044C00F8D03B1D07F10C0200210E4800F06CFFA8
:10045C003B79012B02D0022B08D00BE03B1D184638
:10046C00FFF77AFF084800F019FB07E0074800F097
:10047C0015FB03E0064800F011FB00BF00BF283756
:10048C00BD4680BDA4000020A4350008C43500087A
:10049C00E435000880B500AF01220221034801F0C9
:1004AC0058FDFFF7BFFF00BF80BD00BF0008014033
:1004BC0080B584B000AF614BBB60614B7B600023A7
:1004CC003B600023FB6001215E4801F02BFD0346DD
:1004DC00002B05D15C4800F0E1FAFFF7DBFFA8E048
:1004EC00BB681B780A2B02D00B2B4ED09BE07B6891
:1004FC00DB689B08FB607B68DB6803F00303002B65
:10050C0002D0FB680133FB60FA685049504801F097
:10051C0052F93860BB685B68002B08D1BB681B784C
:10052C0019464C4800F0BAFAFFF712FE81E0BB689E
:10053C005B68012B1DD17B681B693A689A4218D104
:10054C007B68DB68002B14D00B20FFF74DFE0120DD
:10055C0000F0BEFC0020FFF7A3FE3F4800F09EFA1F
:10056C00BB681B7819463B4800F098FAFFF716FE5B
:10057C005FE03A4800F092FABB681B7819463548A0
:10058C0000F08CFAFFF7E4FD53E07B681B689B08D6
:10059C00FB607B681B6803F00303002B02D0FB6835
:1005AC000133FB60FA682E49294801F004F93860E0
:1005BC00BB685B68002B08D1BB681B7819462548C3
:1005CC0000F06CFAFFF7EAFD33E0BB685B68012BC7
:1005DC001DD17B685B683A689A4218D17B681B68AE
:1005EC00002B14D00A20FFF7FFFD012000F070FC57
:1005FC000020FFF755FE184800F050FABB681B7836
:10060C001946144800F04AFAFFF7A2FD11E013480E
:10061C0000F044FABB681B7819460E4800F03EFA0D
:10062C00FFF7BCFD05E00F4800F038FAFFF732FF8A
:10063C0000BF00BF1037BD4680BD00BF008400085E
:10064C000080000800080140F835000800C40008CC
:10065C00CC00002010360008343600086C36000838
:10066C0000880008A036000880B483B000AF0346B1
:10067C00FB7197F90730002B0BDBFB7903F01F02A2
:10068C00064997F907305B09012000FA02F241F89C
:10069C00232000BF0C37BD4680BC704700E100E052
:1006AC0080B400AF074B1B6803F00203002B05D08E
:1006BC00044B02225A60044B01221A7000BFBD4643
:1006CC0080BC7047000002409400002080B500AF51
:1006DC00204B5B691F4A43F0010353611E4B1B689F
:1006EC001D4A43F4804313601B4B1B681A4A43F4A6
:1006FC0080531360184B1B68174A23F44063136034
:10070C00154B1B68144A23F440731360124B1B687F
:10071C00114A43F0800313600F4B1B680E4A43F0E1
:10072C00400313600C4B1B680B4A23F0200313602F
:10073C00094B1B68084A23F010031360064B1B6817
:10074C00054A43F0020313600B20FFF78DFF00BF37
:10075C0080BD00BF001002400800024080B485B08C
:10076C0000AFF860B9601346FB800A4AFB885360FF
:10077C00084AFB689360074ABB68D360054B1B684B
:10078C00044A43F001031360002318461437BD4696
:10079C0080BC70470800024080B58EB000AF786016
:1007AC0000233B6200237B620123BB627B685B6896
:1007BC005B01FB6000233B614FF6E0737B61002320
:1007CC00BB617B689B68FB610123FB627B681B68D8
:1007DC0007F10C021146184600F099FC034687F805
:1007EC00373097F83730002B01D005230EE07B68AB
:1007FC001B68184600F054FD034687F8373097F80D
:10080C003730002B01D0052300E000231846383781
:10081C00BD4680BD80B584B000AF00F0D9FA00F0C1
:10082C0033F800F0EBF800F075F800F0A9F800F0E0
:10083C00BBF8104800F032F934237B600023BB6016
:10084C000D4B3B603B461846FFF7A6FF0346FB7378
:10085C00FB7B002B02D0094800F020F9FFF736FF94
:10086C00072207490748FFF779FFFFF721FE00BF72
:10087C00FDE700BFB8360008A4000020C036000811
:10088C00980000200000002080B590B000AF07F168
:10089C00180328220021184602F0E2F93B1D002221
:1008AC001A605A609A60DA601A610123BB614FF4D6
:1008BC008033FB6100233B620123BB6202237B6319
:1008CC004FF48033BB634FF4E013FB6307F1180361
:1008DC00184601F057FB0346002B01D000F0D8F866
:1008EC000F237B600223BB600023FB604FF480630B
:1008FC003B6100237B613B1D0221184601F0C4FDC6
:10090C000346002B01D000F0C3F800BF4037BD46B2
:10091C0080BD000080B500AF174B184A1A60164B0B
:10092C0004225A60144B00229A60134B0022DA60A6
:10093C00114B4FF460221A610F4B4FF480125A6125
:10094C000D4B00221A760C4B00225A760A4B0022D1
:10095C009A76094B0022DA76074B00221A77064B5F
:10096C0000225A77044800F0D7FA0346002B01D036
:10097C0000F08EF800BF80BDA40000200064004091
:10098C0080B500AF064B074A1A60054800F0F7FE29
:10099C000346002B01D000F07BF800BF80BD00BFE8
:1009AC00CC0000200030024080B500AF114B124A41
:1009BC001A60104B4FF4E1325A600E4B00229A60D1
:1009CC000C4B0022DA600B4B00221A61094B0C22F3
:1009DC005A61084B00229A61064B0022DA610548E5
:1009EC0001F0E0FE0346002B01D000F051F800BFEF
:1009FC0080BD00BFD40000200038014080B586B017
:100A0C0000AF07F1080300221A605A609A60DA609E
:100A1C001D4B9B691C4A43F0200393611A4B9B6945
:100A2C0003F020037B607B68174B9B69164A43F0ED
:100A3C0004039361144B9B6903F004033B603B6814
:100A4C0000220221114801F084FA0123BB6000232B
:100A5C00FB6001233B6107F1080319460B4801F0C9
:100A6C00DDF80223BB600123FB6000233B61022302
:100A7C007B6107F108031946044801F0CFF800BF69
:100A8C001837BD4680BD00BF001002400008014071
:100A9C0080B400AF72B600BF00BFFDE70FB480B5E5
:100AAC0082B000AF07F114037B607B683A69802148
:100ABC000A4802F0C7F80948FFF742FB03469AB20E
:100ACC004FF0FF330549064801F0BCFE00BF083764
:100ADC00BD46BDE8804004B0704700BF1C0100203B
:100AEC00D400002080B485B000AF154B9B69144A2C
:100AFC0043F001039361124B9B6903F00103BB604C
:100B0C00BB680F4BDB690E4A43F08053D3610C4B2F
:100B1C00DB6903F080537B607B680A4B5B68FB608E
:100B2C00FB6823F0E063FB60FB6843F00073FB6041
:100B3C00044AFB68536000BF1437BD4680BC704745
:100B4C00001002400000014080B588B000AF786012
:100B5C0007F1100300221A605A609A60DA607B6811
:100B6C001B681C4A934231D11B4BDB691A4A43F078
:100B7C000073D361184BDB6903F00073FB60FB68F7
:100B8C00154B9B69144A43F004039361124B9B6908
:100B9C0003F00403BB60BB684FF400633B610023AC
:100BAC007B610023BB6107F1100319460B4801F070
:100BBC0035F84FF480533B6102237B610323FB61C7
:100BCC0007F110031946054801F028F800BF20373B
:100BDC00BD4680BD0064004000100240000801408A
:100BEC0080B485B000AF78607B681B68094A93427B
:100BFC000BD1094B5B69084A43F040035361064B28
:100C0C005B6903F04003FB60FB6800BF1437BD4613
:100C1C0080BC7047003002400010024080B588B0A4
:100C2C0000AF786007F1100300221A605A609A60D6
:100C3C00DA607B681B681C4A934231D11B4B9B6961
:100C4C001A4A43F480439361184B9B6903F4804325
:100C5C00FB60FB68154B9B69144A43F004039361DA
:100C6C00124B9B6903F00403BB60BB684FF4007329
:100C7C003B6102237B610323FB6107F110031946DF
:100C8C000B4800F0CBFF4FF480633B6100237B618A
:100C9C000023BB6107F110031946054800F0BEFFA5
:100CAC0000BF2037BD4680BD003801400010024017
:100CBC000008014080B400AF00BFFDE780B400AF76
:100CCC0000BFFDE780B400AF00BFFDE780B400AF0C
:100CDC0000BFFDE780B400AF00BFFDE780B400AFFC
:100CEC0000BFBD4680BC704780B400AF00BFBD469E
:100CFC0080BC704780B400AF00BFBD4680BC70475D
:100D0C0080B500AF00F0C8F800BF80BD80B586B0DC
:100D1C0000AF7860144A154BD31A7B617B693B6139
:100D2C00134B1B68002B02D1114B124A1A60104B4B
:100D3C001A687B6813443A699A4207D201F098FF0B
:100D4C0003460C221A604FF0FF3309E0084B1B6876
:100D5C00FB60074B1A687B681344054A1360FB68F9
:100D6C0018461837BD4680BD005000200004000016
:100D7C009C0100201003002080B400AF00BFBD46D2
:100D8C0080BC7047FFF7F8FF0B480C490C4A002356
:100D9C0002E0D458C4500433C4188C42F9D3094A25
:100DAC00094C002301E013600432A242FBD301F092
:100DBC0065FFFFF72FFD7047000000206400002046
:100DCC00503700086800002010030020FEE70000E8
:100DDC0080B500AF084B1B68074A43F01003136043
:100DEC00032000F099FC0F2000F026F8FFF77AFEA4
:100DFC000023184680BD00BF0020024080B500AF24
:100E0C00094B4FF0FF321A61074B00221A61064B57
:100E1C004FF0FF32DA60044B0022DA6000F006F883
:100E2C000023184680BD00BF0010024080B400AF04
:100E3C0000BFBD4680BC704780B582B000AF786003
:100E4C00124B1A68124B1B7819464FF47A73B3FB8A
:100E5C00F1F3B2FBF3F3184600F085FC0346002BCC
:100E6C0001D001230EE07B680F2B0AD80022796891
:100E7C004FF0FF3000F05BFC064A7B6813600023E8
:100E8C0000E0012318460837BD4680BD080000204D
:100E9C00100000200C00002080B400AF054B1B7824
:100EAC001A46054B1B681344034A136000BFBD462A
:100EBC0080BC704710000020A001002080B400AF5F
:100ECC00024B1B681846BD4680BC7047A001002031
:100EDC0080B584B000AF7860FFF7F0FFB8607B6836
:100EEC00FB60FB68B3F1FF3F05D00A4B1B781A4639
:100EFC00FB681344FB6000BFFFF7E0FF0246BB68D2
:100F0C00D31AFA689A42F7D800BF00BF1037BD4613
:100F1C0080BD00BF1000002080B584B000AF7860A9
:100F2C007B68002B01D10123EDE07B6893F8203026
:100F3C00DBB2002B02D17868FFF706FE7B681B68DA
:100F4C001A687B681B6842F001021A60FFF7B6FF53
:100F5C00F86012E0FFF7B2FF0246FB68D31A0A2BC7
:100F6C000BD97B685B6A43F400327B685A627B68FE
:100F7C00052283F820200123C5E07B681B685B6891
:100F8C0003F00103002BE5D07B681B681A687B68B3
:100F9C001B6822F002021A60FFF790FFF86012E063
:100FAC00FFF78CFF0246FB68D31A0A2B0BD97B6820
:100FBC005B6A43F400327B685A627B68052283F8D3
:100FCC00202001239FE07B681B685B6803F0020311
:100FDC00002BE5D17B681B7E012B08D17B681B683D
:100FEC001A687B681B6842F080021A6007E07B6815
:100FFC001B681A687B681B6822F080021A607B6889
:10100C005B7E012B08D17B681B681A687B681B68A8
:10101C0042F040021A6007E07B681B681A687B6824
:10102C001B6822F040021A607B689B7E012B08D162
:10103C007B681B681A687B681B6842F020021A6088
:10104C0007E07B681B681A687B681B6822F020022B
:10105C001A607B68DB7E012B08D17B681B681A68E1
:10106C007B681B6822F010021A6007E07B681B6823
:10107C001A687B681B6842F010021A607B681B7F41
:10108C00012B08D17B681B681A687B681B6842F0CF
:10109C0008021A6007E07B681B681A687B681B688B
:1010AC0022F008021A607B685B7F012B08D17B68F9
:1010BC001B681A687B681B6842F004021A6007E020
:1010CC007B681B681A687B681B6822F004021A6034
:1010DC007B689A687B68DB681A437B681B691A43D8
:1010EC007B685B6942EA03017B685B685A1E7B681C
:1010FC001B680A43DA617B6800225A627B68012212
:10110C0083F82020002318461037BD4680BD80B4DC
:10111C0087B000AF786039607B681B687B617B6847
:10112C0093F82030FB74FB7C012B03D0FB7C022B4F
:10113C0040F0AA807B69D3F8003243F001027B694E
:10114C00C3F800223B685B6903F01F03012202FA1B
:10115C0003F3FB607B69D3F81C22FB68DB431A406A
:10116C007B69C3F81C223B68DB69002B23D17B69AC
:10117C00D3F80C22FB68DB431A407B69C3F80C22C2
:10118C003B68DB6819043B685B689BB23A68526940
:10119C0019437B69483243F832103B689B68190449
:1011AC003B681B689AB23B685B690A4379694833B0
:1011BC00DB000B445A603B68DB69012B22D17B6955
:1011CC00D3F80C22FB681A437B69C3F80C223B68EA
:1011DC001B6819043B685B689BB23A6852691943F7
:1011EC007B69483243F832103B689B6819043B68B2
:1011FC00DB689AB23B685B690A4379694833DB0068
:10120C000B445A603B689B69002B09D17B69D3F86E
:10121C000422FB68DB431A407B69C3F8042207E015
:10122C007B69D3F80422FB681A437B69C3F8042258
:10123C003B681B69002B09D17B69D3F81422FB682E
:10124C00DB431A407B69C3F8142207E07B69D3F8AF
:10125C001422FB681A437B69C3F814223B681B6A8F
:10126C00012B07D17B69D3F81C22FB681A437B69DD
:10127C00C3F81C227B69D3F8003223F001027B698E
:10128C00C3F80022002306E07B685B6A43F48022EB
:10129C007B685A62012318461C37BD4680BC7047D8
:1012AC0080B584B000AF78607B6893F82030DBB2F7
:1012BC00012B2ED17B68022283F820207B681B68CF
:1012CC001A687B681B6822F001021A60FFF7F6FDB2
:1012DC00F86012E0FFF7F2FD0246FB68D31A0A2B06
:1012EC000BD97B685B6A43F400327B685A627B687B
:1012FC00052283F82020012312E07B681B685B68C1
:10130C0003F00103002BE5D17B6800225A62002315
:10131C0006E07B685B6A43F400227B685A62012317
:10132C0018461037BD4680BD80B487B000AFF8605A
:10133C00B9607A603B60FB6893F82030FB75FB7DED
:10134C00012B03D0FB7D022B40F00381BB68002BEB
:10135C000ED1FB681B68DB6803F00303002B16D16E
:10136C00FB685B6A43F40012FB685A620123F7E0E6
:10137C00FB681B681B6903F00303002B07D1FB6898
:10138C005B6A43F40012FB685A620123E8E0FB68D5
:10139C001A68BB681B331B0113441B6803F004025F
:1013AC007B689A607B689B68002B0CD1FB681A6881
:1013BC00BB681B331B0113441B685B0DC3F30A0290
:1013CC007B681A600BE0FB681A68BB681B331B0157
:1013DC0013441B68DB0823F060427B685A60FB688F
:1013EC001A68BB681B331B0113441B6803F0020211
:1013FC007B68DA60FB681A68BB681B331B011344FB
:10140C0004331B6803F00803002B03D07B6808220D
:10141C001A610BE0FB681A68BB681B331B01134491
:10142C0004331B6803F00F027B681A61FB681A68AF
:10143C00BB681B331B01134404331B681B0ADAB251
:10144C007B689A61FB681A68BB681B331B011344E9
:10145C0004331B681B0C9AB27B685A61FB681A68D0
:10146C00BB681B01134403F5DC731B68DAB23B68E1
:10147C001A70FB681A68BB681B01134403F5DC7314
:10148C001B681A0A3B680133D2B21A70FB681A68DF
:10149C00BB681B01134403F5DC731B681A0C3B6817
:1014AC000233D2B21A70FB681A68BB681B01134472
:1014BC0003F5DC731B681A0E3B680333D2B21A7047
:1014CC00FB681A68BB681B01134403F5DE731A68CA
:1014DC003B680433D2B21A70FB681A68BB681B01F4
:1014EC00134403F5DE731B681A0A3B680533D2B24A
:1014FC001A70FB681A68BB681B01134403F5DE7392
:10150C001B681A0C3B680633D2B21A70FB681A6857
:10151C00BB681B01134403F5DE731B681A0E3B6892
:10152C000733D2B21A70BB68002B08D1FB681B685A
:10153C00DA68FB681B6842F02002DA6007E0FB689F
:10154C001B681A69FB681B6842F020021A610023B1
:10155C0006E0FB685B6A43F48022FB685A62012355
:10156C0018461C37BD4680BC704780B485B000AFB0
:10157C00786039600023FB607B6893F82030FB7245
:10158C00FB7A012B02D0FB7A022B0FD13B68002B8C
:10159C0006D17B681B68DB6803F00303FB6005E086
:1015AC007B681B681B6903F00303FB60FB68184630
:1015BC001437BD4680BC704780B485B000AF7860EE
:1015CC007B6803F00703FB600C4BDB68BB60BA68FD
:1015DC004FF6FF031340BB60FB681A02BB68134352
:1015EC0043F0BF6343F40033BB60044ABB68D36071
:1015FC0000BF1437BD4680BC704700BF00ED00E053
:10160C0080B400AF044BDB681B0A03F007031846D9
:10161C00BD4680BC704700BF00ED00E080B483B0D5
:10162C0000AF03463960FB7197F90730002B0ADBDA
:10163C003B68DAB20C4997F907301201D2B20B446D
:10164C0083F800230AE03B68DAB20849FB7903F01F
:10165C000F03043B1201D2B20B441A7600BF0C37B5
:10166C00BD4680BC704700BF00E100E000ED00E02B
:10167C0080B489B000AFF860B9607A60FB6803F0A1
:10168C000703FB61FB69C3F10703042B28BF042389
:10169C00BB61FB690433062B02D9FB69033B00E0F9
:1016AC0000237B614FF0FF32BB6902FA03F3DA438C
:1016BC00BB681A407B699A404FF0FF317B6901FA95
:1016CC0003F3D9437B680B40134318462437BD46BC
:1016DC0080BC704780B582B000AF78607B68013BFE
:1016EC00B3F1807F01D301230FE00A4A7B68013BF1
:1016FC0053600F214FF0FF30FFF790FF054B002296
:10170C009A60044B07221A60002318460837BD461E
:10171C0080BD00BF10E000E080B582B000AF786003
:10172C007868FFF749FF00BF0837BD4680BD80B51C
:10173C0086B000AF0346B9607A60FB7300237B610F
:10174C00FFF75EFF78617A68B9687869FFF790FFF8
:10175C00024697F90F3011461846FFF75FFF00BF9E
:10176C001837BD4680BD80B582B000AF7860786810
:10177C00FFF7B0FF034618460837BD4680BD80B55D
:10178C0082B000AF78607B68002B01D101230EE0A2
:10179C007B685B79DBB2002B05D17B6800221A7168
:1017AC007868FFF71DFA7B6801225A7100231846EE
:1017BC000837BD4680BD80B487B000AFF860B96013
:1017CC007A6000233B61FB6802225A71FB681B683C
:1017DC009A68FB681B6842F001029A6000237B61E7
:1017EC000AE07B699B00BA681A44FB681B681268A4
:1017FC001A607B6901337B617A697B689A42F0D30A
:10180C00FB681B681B683B61FB6801225A713B69D2
:10181C0018461C37BD4680BC70470000F0B587B039
:10182C0000AFF860B960C7E900230123FB75002302
:10183C00BB7500237B752F4B1B7E012B01D1022323
:10184C0054E02C4B01221A764CF2503000F0A8F8E0
:10185C000346FB75FB7D002B44D1FB68012B02D1A9
:10186C0001237B7507E0FB68022B02D102237B75F9
:10187C0001E004237B750023BB752DE0BB7D5A0072
:10188C00BB6802EB030CBB7D1901D7E90023C1F146
:10189C002006A1F1200022FA01F403FA06F63443E3
:1018AC0023FA00F0044323FA01F5A3B2194660466B
:1018BC0000F05AF84CF2503000F072F80346FB7509
:1018CC000D4B1B690C4A23F001031361FB7D002BAC
:1018DC0007D1BB7D0133BB75BA7D7B7D9A42CDD3DD
:1018EC0000E000BF034B00221A76FB7D18461C3724
:1018FC00BD46F0BDA80100200020024080B483B09A
:10190C0000AF0023FB710D4B1B6903F08003002B10
:10191C000DD00A4B0A4A5A60084B0A4A5A60074BC8
:10192C001B6903F08003002B01D00123FB71FB79B1
:10193C0018460C37BD4680BC704700BF00200240E3
:10194C0023016745AB89EFCD80B400AF054B1B6914
:10195C00044A43F08003136100231846BD4680BC43
:10196C00704700BF0020024080B483B000AF7860A5
:10197C000B467B80084B0022DA61084B1B69074A37
:10198C0043F0010313617B687A881A8000BF0C371F
:10199C00BD4680BC704700BFA8010020002002405B
:1019AC0080B584B000AF7860FFF788FAF86010E07B
:1019BC007B68B3F1FF3F0CD07B68002B07D0FFF79F
:1019CC007DFA0246FB68D31A7A689A4201D2032345
:1019DC0025E0154BDB6803F00103002BE8D1124B1B
:1019EC00DB6803F02003002B02D00F4B2022DA60BF
:1019FC000D4BDB6803F01003002B0BD10A4BDB699A
:101A0C0003F00103002B05D1074BDB6803F0040343
:101A1C00002B03D000F00AF8012300E00023184645
:101A2C001037BD4680BD00BF0020024080B483B09B
:101A3C0000AF00237B60234BDB6803F01003002B0B
:101A4C0009D0214BDB6943F002031F4AD3617B6849
:101A5C0043F010037B601B4BDB6803F00403002B8B
:101A6C0009D0194BDB6943F00103174AD3617B683A
:101A7C0043F004037B60134BDB6903F00103002B81
:101A8C000BD0114BDB6943F004030F4AD3610D4BB0
:101A9C00DB690C4A23F00103D3617B6840F201122D
:101AAC00934206D1074BDB69064A23F00103D3614D
:101ABC0002E0044A7B68D36000BF0C37BD4680BC93
:101ACC00704700BF00200240A801002080B584B000
:101ADC0000AF786039600123FB730023BB602F4B90
:101AEC001B7E012B01D1022353E02C4B01221A76D1
:101AFC007B681B68022B16D14CF25030FFF750FF5D
:101B0C000346002B41D1012000F04CF84CF2503030
:101B1C00FFF746FF0346FB73214B1B69204A23F05A
:101B2C000403136131E04CF25030FFF739FF0346E8
:101B3C00002B2AD13B684FF0FF321A607B689B6800
:101B4C00BB6019E0B86800F049F84CF25030FFF770
:101B5C0027FF0346FB73124B1B69114A23F0020348
:101B6C001361FB7B002B03D03B68BA681A600CE056
:101B7C00BB6803F58063BB607B68DB689A027B689B
:101B8C009B681344BA689A42DCD3044B00221A7641
:101B9C00FB7B18461037BD4680BD00BFA801002056
:101BAC000020024080B483B000AF7860094B002263
:101BBC00DA61094B1B69084A43F004031361064BB5
:101BCC001B69054A43F04003136100BF0C37BD4647
:101BDC0080BC7047A80100200020024080B483B074
:101BEC0000AF78600B4B0022DA610B4B1B690A4A81
:101BFC0043F002031361084A7B685361064B1B696F
:101C0C00054A43F04003136100BF0C37BD4680BC4E
:101C1C00704700BFA80100200020024080B48BB0A8
:101C2C0000AF7860396000237B6200233B6269E17E
:101C3C0001227B6A02FA03F3FB613B681B68FA69B9
:101C4C001340BB61BA69FB699A4240F058813B680A
:101C5C005B689A4A93425ED0984A934275D8984AE8
:101C6C00934258D0964A93426FD8964A934252D098
:101C7C00944A934269D8944A93424CD0924A9342E4
:101C8C0063D8924A934246D0904A93425DD8122B25
:101C9C002AD8122B59D801A252F823F0231D000880
:101CAC00FD1C00080F1D0008511D0008571D0008E1
:101CBC00571D0008571D0008571D0008571D000828
:101CCC00571D0008571D0008571D0008571D000818
:101CDC00571D0008571D0008571D0008571D000808
:101CEC00051D0008191D0008794A934213D02CE0F9
:101CFC003B68DB683B6229E03B68DB6804333B6292
:101D0C0024E03B68DB6808333B621FE03B68DB6820
:101D1C000C333B621AE03B689B68002B02D1042316
:101D2C003B6213E03B689B68012B05D108233B62A7
:101D3C007B68FA691A6109E008233B627B68FA69DF
:101D4C005A6103E000233B6200E000BFBB69FF2B3C
:101D5C0001D87B6801E07B6804337B61BB69FF2B96
:101D6C0002D87B6A9B0002E07B6A083B9B003B61CC
:101D7C007B691A680F213B6901FA03F3DB431A40B4
:101D8C00396A3B6901FA03F31A437B691A603B68B1
:101D9C005B6803F08053002B00F0B1804D4B9B69C6
:101DAC004C4A43F0010393614A4B9B6903F00103D6
:101DBC00BB60BB68484A7B6A9B08023352F82330ED
:101DCC00FB607B6A03F003039B000F2202FA03F310
:101DDC00DB43FA681340FB607B68404A934213D0A4
:101DEC007B683F4A93420DD07B683E4A934207D0B2
:101DFC007B683D4A934201D1032306E0042304E0AF
:101E0C00022302E0012300E000237A6A02F00302BD
:101E1C0092009340FA681343FB602F497B6A9B083E
:101E2C000233FA6841F823203B685B6803F48013A3
:101E3C00002B06D02D4B9A682C49BB6913438B6041
:101E4C0006E02A4B9A68BB69DB43284913408B6038
:101E5C003B685B6803F40013002B06D0234BDA6855
:101E6C002249BB691343CB6006E0204BDA68BB699F
:101E7C00DB431E491340CB603B685B6803F40033C3
:101E8C00002B06D0194B5A681849BB6913434B6099
:101E9C0006E0164B5A68BB69DB43144913404B6090
:101EAC003B685B6803F48033002B21D00F4B1A681E
:101EBC000E49BB6913430B6021E000BF00003210D8
:101ECC000000311000002210000021100000121040
:101EDC0000001110001002400000014000080140F9
:101EEC00000C0140001001400014014000040140AE
:101EFC000B4B1A68BB69DB43094913400B607B6AC7
:101F0C0001337B623B681A687B6A22FA03F3002B6D
:101F1C007FF48EAE00BF00BF2C37BD4680BC70472F
:101F2C000004014080B485B000AF78600B467B8024
:101F3C007B689A687B881340002B02D00123FB73CB
:101F4C0001E00023FB73FB7B18461437BD4680BCB5
:101F5C00704780B483B000AF78600B467B8013462B
:101F6C007B707B78002B03D07A887B681A6103E046
:101F7C007B881A047B681A6100BF0C37BD4680BC95
:101F8C007047000080B586B000AF78607B68002B8E
:101F9C0001D1012372E27B681B6803F00103002B63
:101FAC0000F08780924B5B6803F00C03042B0CD081
:101FBC008F4B5B6803F00C03082B12D18C4B5B68C6
:101FCC0003F48033B3F5803F0BD1894B1B6803F4CA
:101FDC000033002B6CD07B685B68002B68D101232D
:101FEC004CE27B685B68B3F5803F06D1804B1B6885
:101FFC007F4A43F4803313602EE07B685B68002BD0
:10200C000CD17B4B1B687A4A23F480331360784BDA
:10201C001B68774A23F4802313601DE07B685B68A0
:10202C00B3F5A02F0CD1724B1B68714A43F480237B
:10203C0013606F4B1B686E4A43F4803313600BE0E4
:10204C006B4B1B686A4A23F480331360684B1B6824
:10205C00674A23F4802313607B685B68002B13D0E2
:10206C00FEF72CFF386108E0FEF728FF02463B69BB
:10207C00D31A642B01D9032300E25D4B1B6803F4D4
:10208C000033002BF0D014E0FEF718FF386108E0A5
:10209C00FEF714FF02463B69D31A642B01D90323C4
:1020AC00ECE1534B1B6803F40033002BF0D100E040
:1020BC0000BF7B681B6803F00203002B63D04C4B02
:1020CC005B6803F00C03002B0BD0494B5B6803F0EF
:1020DC000C03082B1CD1464B5B6803F48033002B9C
:1020EC0016D1434B1B6803F00203002B05D07B6811
:1020FC001B69012B01D00123C0E13D4B1B6823F070
:10210C00F8027B685B69DB00394913430B603AE0EA
:10211C007B681B69002B20D0364B01221A60FEF71E
:10212C00CDFE386108E0FEF7C9FE02463B69D31AC2
:10213C00022B01D90323A1E12D4B1B6803F00203F1
:10214C00002BF0D02A4B1B6823F0F8027B685B69EC
:10215C00DB00274913430B6015E0264B00221A6065
:10216C00FEF7ACFE386108E0FEF7A8FE02463B69BC
:10217C00D31A022B01D9032380E11D4B1B6803F0FA
:10218C000203002BF0D17B681B6803F00803002BC3
:10219C003AD07B689B69002B19D0174B01221A602F
:1021AC00FEF78CFE386108E0FEF788FE02463B69BC
:1021BC00D31A022B01D9032360E10D4B5B6A03F0A8
:1021CC000203002BF0D0012000F0CEFA1CE00A4BE9
:1021DC0000221A60FEF772FE38610FE0FEF76EFE09
:1021EC0002463B69D31A022B08D9032346E100BFF0
:1021FC00001002400000424280044242924B5B6A53
:10220C0003F00203002BE9D17B681B6803F0040385
:10221C00002B00F0A6800023FB758B4BDB6903F0D1
:10222C008053002B0DD1884BDB69874A43F08053D8
:10223C00D361854BDB6903F08053BB60BB68012322
:10224C00FB75824B1B6803F48073002B18D17F4BFA
:10225C001B687E4A43F480731360FEF72FFE3861CF
:10226C0008E0FEF72BFE02463B69D31A642B01D91A
:10227C00032303E1754B1B6803F48073002BF0D030
:10228C007B68DB68012B06D16F4B1B6A6E4A43F0EF
:10229C00010313622DE07B68DB68002B0CD16A4BC9
:1022AC001B6A694A23F001031362674B1B6A664A77
:1022BC0023F0040313621CE07B68DB68052B0CD154
:1022CC00614B1B6A604A43F0040313625E4B1B6A4A
:1022DC005D4A43F0010313620BE05B4B1B6A5A4AE5
:1022EC0023F001031362584B1B6A574A23F0040373
:1022FC0013627B68DB68002B15D0FEF7DFFD3861BD
:10230C000AE0FEF7DBFD02463B69D31A41F2883244
:10231C00934201D90323B1E04B4B1B6A03F0020338
:10232C00002BEED014E0FEF7C9FD38610AE0FEF791
:10233C00C5FD02463B69D31A41F28832934201D95A
:10234C0003239BE0404B1B6A03F00203002BEED1EE
:10235C00FB7D012B05D13C4BDB693B4A23F08053C1
:10236C00D3617B68DB69002B00F08780364B5B68A0
:10237C0003F00C03082B61D07B68DB69022B46D180
:10238C00334B00221A60FEF799FD386108E0FEF726
:10239C0095FD02463B69D31A022B01D903236DE04C
:1023AC00294B1B6803F00073002BF0D17B681B6A70
:1023BC00B3F5803F08D1244B5B6823F400327B6873
:1023CC009B68214913434B601F4B5B6823F47412C9
:1023DC007B68196A7B685B6A0B431B4913434B6030
:1023EC001B4B01221A60FEF769FD386108E0FEF70D
:1023FC0065FD02463B69D31A022B01D903233DE04C
:10240C00114B1B6803F00073002BF0D035E0104B20
:10241C0000221A60FEF752FD386108E0FEF74EFD0F
:10242C0002463B69D31A022B01D9032326E0064B43
:10243C001B6803F00073002BF0D11EE07B68DB6996
:10244C00012B07D1012319E000100240007000405D
:10245C00600042420B4B5B68FB60FB6803F480320C
:10246C007B681B6A9A4206D1FB6803F470127B6886
:10247C005B6A9A4201D0012300E00023184618370A
:10248C00BD4680BD0010024080B584B000AF7860BE
:10249C0039607B68002B01D10123D0E06A4B1B68AB
:1024AC0003F007033A689A4210D9674B1B6823F074
:1024BC00070265493B6813430B60634B1B6803F0D1
:1024CC0007033A689A4201D00123B8E07B681B6885
:1024DC0003F00203002B20D07B681B6803F004037D
:1024EC00002B05D0594B5B68584A43F4E0635360AA
:1024FC007B681B6803F00803002B05D0534B5B680B
:10250C00524A43F460535360504B5B6823F0F00223
:10251C007B689B684D4913434B607B681B6803F0D9
:10252C000103002B40D07B685B68012B07D1474B24
:10253C001B6803F40033002B15D101237FE07B686B
:10254C005B68022B07D1414B1B6803F00073002B17
:10255C0009D1012373E03D4B1B6803F00203002BF0
:10256C0001D101236BE0394B5B6823F003027B68DC
:10257C005B68364913434B60FEF7A0FCF8600AE039
:10258C00FEF79CFC0246FB68D31A41F28832934258
:10259C0001D9032353E02D4B5B6803F00C027B68DD
:1025AC005B689B009A42EBD1274B1B6803F0070337
:1025BC003A689A4210D2244B1B6823F00702224936
:1025CC003B6813430B60204B1B6803F007033A680E
:1025DC009A4201D0012332E07B681B6803F00403AC
:1025EC00002B08D0194B5B6823F4E0627B68DB6836
:1025FC00164913434B607B681B6803F00803002BE0
:10260C0009D0124B5B6823F460527B681B69DB00BA
:10261C000E4913434B6000F021F802460B4B5B68EC
:10262C001B0903F00F030A49CB5C22FA03F3094A96
:10263C001360094B1B681846FEF7FEFB0023184677
:10264C001037BD4680BD00BF002002400010024084
:10265C00E0360008080000200C00002080B487B091
:10266C0000AF0023FB600023BB6000237B610023D1
:10267C007B6000233B611E4B5B68FB60FB6803F0D7
:10268C000C03042B02D0082B03D027E0194B3B6121
:10269C0027E0FB689B0C03F00F03174AD35C7B60AD
:1026AC00FB6803F48033002B10D0114B5B685B0C80
:1026BC0003F00103114AD35CBB607B680D4A03FB3A
:1026CC0002F2BB68B2FBF3F37B6104E07B680C4A5B
:1026DC0002FB03F37B617B693B6102E0054B3B61D1
:1026EC0000BF3B6918461C37BD4680BC704700BF15
:1026FC000010024000127A00F83600080837000873
:10270C0000093D0080B400AF024B1B681846BD4663
:10271C0080BC70470800002080B500AFFFF7F2FFC7
:10272C000246054B5B681B0A03F007030349CB5CAD
:10273C0022FA03F3184680BD00100240F036000860
:10274C0080B500AFFFF7DEFF0246054B5B68DB0A86
:10275C0003F007030349CB5C22FA03F3184680BD50
:10276C0000100240F036000880B485B000AF7860ED
:10277C000A4B1B680A4AA2FB03235B0A7A6802FB1A
:10278C0003F3FB6000BFFB685A1EFA60002BF9D103
:10279C0000BF00BF1437BD4680BC70470800002046
:1027AC00D34D621080B582B000AF78607B68002B8F
:1027BC0001D1012342E07B6893F84130DBB2002B5E
:1027CC0006D17B68002283F840207868FEF726FA51
:1027DC007B68242283F841207B681B68DA687B685D
:1027EC001B6822F40052DA60786800F071F97B689B
:1027FC001B681A697B681B6822F490421A617B681B
:10280C001B685A697B681B6822F02A025A617B6834
:10281C001B68DA687B681B6842F40052DA607B68DC
:10282C0000225A647B68202283F841207B68202296
:10283C0083F842207B6800225A630023184608372D
:10284C00BD4680BD80B58AB002AFF860B9603B6010
:10285C001346FB8000237B61FB6893F84130DBB2AD
:10286C00202B75D1BB68002B02D0FB88002B01D12B
:10287C0001236EE0FB6800225A64FB68212283F876
:10288C004120FEF71BFB7861FB68FA889A84FB6891
:10289C00FA88DA84FB689B68B3F5805F08D1FB6823
:1028AC001B69002B04D10023FB61BB68BB6103E0F7
:1028BC00BB68FB610023BB612EE03B6800937B6926
:1028CC0000228021F86800F048F80346002B05D060
:1028DC00FB68202283F8412003233AE0FB69002B9C
:1028EC000BD1BB691B881A46FB681B68C2F3080234
:1028FC005A60BB690233BB6107E0FB691A78FB685D
:10290C001B685A60FB690133FB61FB68DB8C9BB273
:10291C00013B9AB2FB68DA84FB68DB8C9BB2002B20
:10292C00CBD13B6800937B6900224021F86800F012
:10293C0014F80346002B05D0FB68202283F84120B5
:10294C00032306E0FB68202283F84120002300E0EB
:10295C00022318462037BD4680BD80B586B000AF37
:10296C00F860B9603B601346FB713BE03B6AB3F126
:10297C00FF3F37D0FEF7A2FA02463B68D31A3A6AF9
:10298C009A4202D33B6A002B01D103233AE0FB6845
:10299C001B68DB6803F00403002B23D0BB68802B7F
:1029AC0020D0BB68402B1DD0FB681B681B6803F054
:1029BC000803082B16D100237B61FB681B681B687E
:1029CC007B61FB681B685B687B617B69F86800F066
:1029DC001DF8FB6808225A64FB68002283F840202B
:1029EC0001230FE0FB681B681A68BB681340BA68C8
:1029FC009A420CBF01230023DBB21A46FB799A42A0
:102A0C00B4D0002318461837BD4680BD80B495B0AD
:102A1C0000AF78607B681B680C337B637B6B53E87F
:102A2C00003F3B633B6B23F49073FB647B681B6838
:102A3C000C33FA6C3A64FB63F96B3A6C41E8002393
:102A4C00BB63BB6B002BE5D17B681B6814333B620B
:102A5C003B6A53E8003FFB61FB6923F00103BB6455
:102A6C007B681B681433BA6CFA62BB62B96AFA6A87
:102A7C0041E800237B627B6A002BE5D17B681B6BF2
:102A8C00012B19D17B681B680C33FB60FB6853E886
:102A9C00003FBB60BB6823F010037B647B681B6842
:102AAC000C337A6CBA617B617969BA6941E80023AD
:102ABC003B613B69002BE5D17B68202283F84220E7
:102ACC007B6800221A6300BF5437BD4680BC704738
:102ADC0080B584B000AF78607B681B681B6923F4F9
:102AEC0040517B68DA687B681B680A431A617B6813
:102AFC009A687B681B691A437B685B691343BB60EC
:102B0C007B681B68DB6823F4B05323F00C037A68F2
:102B1C001268B9680B43D3607B681B685B6923F44C
:102B2C0040717B689A697B681B680A435A617B68B1
:102B3C001B682C4A934203D1FFF702FEF86002E0B7
:102B4C00FFF7EAFDF860FA6813469B0013449A00FD
:102B5C001A447B685B689B00B2FBF3F3224AA2FB2E
:102B6C0003235B091901FA6813469B0013449A006E
:102B7C001A447B685B689B00B2FBF3F21A4BA3FB15
:102B8C0002035B09642000FB03F3D31A1B013233ED
:102B9C00154AA2FB03235B0903F0F0031944FA68FE
:102BAC0013469B0013449A001A447B685B689B0095
:102BBC00B2FBF3F20C4BA3FB02035B09642000FB9A
:102BCC0003F3D31A1B013233074AA2FB03235B091D
:102BDC0003F00F027B681B680A449A6000BF103731
:102BEC00BD4680BD003801401F85EB5130B5144601
:102BFC00002C05461A469BB005DA8B2303604FF078
:102C0C00FF301BB030BD4FF40273ADF80C300CBF6D
:102C1C00234604F1FF33029305934FF6FF730091A3
:102C2C000491ADF80E3069461E9B00F09FF9431CD1
:102C3C00BCBF8B232B60002CE3D00022009B1A70AE
:102C4C00DFE7000007B5009313460A460146034828
:102C5C000068FFF7CBFF03B05DF804FB1400002005
:102C6C0003460244934200D1704703F8011BF9E775
:102C7C00014B1868704700BF1400002070B5002687
:102C8C000C4D0D4C641BA410A64209D100F078FC2D
:102C9C0000260A4D0A4C641BA410A64205D170BD37
:102CAC0055F8043B98470136EEE755F8043B984736
:102CBC000136F2E748370008483700084837000863
:102CCC004C3700087047704738B50546002940D08E
:102CDC0051F8043C0C1F002BB8BFE41800F0DEF8D0
:102CEC001C4A136833B9636014602846BDE8384049
:102CFC0000F0DAB8A34208D9206821188B4201BF32
:102D0C0019685B6809182160EDE71A465B680BB11E
:102D1C00A342FAD911685018A0420BD12068014483
:102D2C00501883421160E0D118685B680844106049
:102D3C005360DAE702D90C232B60D6E72068211800
:102D4C008B4201BF19685B6809182160636054608D
:102D5C00CBE738BD0C03002070B50F4E0C46316824
:102D6C00054611B900F0AAFB30602146284600F058
:102D7C00A5FB431C03D14FF0FF34204670BDC41C8F
:102D8C0024F00304A042F8D0211A284600F096FB48
:102D9C000130F2D1EFE700BF080300202DE9F84322
:102DAC00CD1C25F0030508350C2D38BF0C25002D46
:102DBC00064601DBA94204D90C2333600020BDE890
:102DCC00F883DFF8D48000F069F8D8F800301C469E
:102DDC0044BB29463046FFF7BFFF431C044658D17D
:102DEC00D8F800402746002F43D1002C4BD0236845
:102DFC003946304604EB030900F060FB814542D1B3
:102E0C00216830466D1A2946FFF7A6FF01303AD0EB
:102E1C0023682B442360D8F800305A6862BBC8F88A
:102E2C0000700FE02268521B20D40B2A17D96119AD
:102E3C00A342256018BF5960636808BFC8F800102A
:102E4C0062514B60304600F02FF804F10B00231D4B
:102E5C0020F00700C21A1CBF1B1AA350AFE7626810
:102E6C00A3420CBFC8F800205A60EBE72346646805
:102E7C00AEE73C467F68B6E71A465B68A342FBD1D7
:102E8C0000235360DEE70C233046336000F00CF86F
:102E9C0094E70560D6E700BF0C0300200148FFF75C
:102EAC0011BF00BF040300200148FFF70CBF00BF97
:102EBC00040300202DE9F0471F468E688246BE426F
:102ECC000C4690460B682DD8B1F90C2012F4906F7B
:102EDC0026D06569096905EB4505A3EB010905EBEE
:102EEC00D5757B1C4B446D109D4238BF1D46530558
:102EFC0027D52946FFF752FF064660B34A4621699B
:102F0C0000F0FAFAA38923F4906343F08003A381C1
:102F1C0026614E4426603E466561A5EB0905A56019
:102F2C00BE4200D93E4632464146206800F0ACFA1B
:102F3C000020A3689B1BA360236833442360BDE877
:102F4C00F0872A4600F0E6FA06460028E0D1504603
:102F5C002169FFF7B9FE0C23CAF80030A3894FF0A2
:102F6C00FF3043F04003A381E9E700002DE9F04F67
:102F7C0098468B8907461B060D4614469DB010D506
:102F8C000B6973B94021FFF709FF2860286130B93C
:102F9C000C233B604FF0FF301DB0BDE8F08F402399
:102FAC006B610023099320238DF8293030234FF0D7
:102FBC000109CDF80C80DFF898818DF82A30234672
:102FCC009A4613F8012B0AB1252AF9D1BAEB040B56
:102FDC000BD05B46224629463846FFF76BFF013083
:102FEC0000F0A780099A5A4409929AF80030002BF5
:102FFC0000F09F8000234FF0FF32CDE905230AF14A
:10300C00010A049307938DF853301A935446052202
:10301C0014F8011B4E4800F061FA049AD8B9D00696
:10302C0044BF20238DF85330110744BF2B238DF858
:10303C0053309AF800302A2B15D0544600204FF00C
:10304C000A0C079A214611F8013B303B092B4BD94E
:10305C00B0B1079214E0A0EB080309FA03F3134391
:10306C00A2460493D2E7039B191D1B680391002B06
:10307C00BBBF5B4242F0020207930793B8BF0492B6
:10308C0023782E2B0AD163782A2B32D1039B02345E
:10309C001A1D1B68039243EAE3730593DFF8B4A08F
:1030AC0003225046217800F019FA38B14022049BD3
:1030BC00A0EB0A00824013430134049314F8011B63
:1030CC00062225488DF8281000F008FA002836D082
:1030DC00224B1BBB039B073323F0070308330393DB
:1030EC00099B334409936AE70C4601200CFB02321E
:1030FC00A8E700234FF00A0C19460134059320462B
:10310C0010F8012B303A092A03D9002BC6D00591AF
:10311C00C4E7044601230CFB0121F0E703AB009349
:10312C002A4638460E4B04A9AFF30080421C0646D3
:10313C00D6D1AB895B063FF52DAF09982CE703ABD5
:10314C0000932A463846064B04A900F07DF8EDE7BB
:10315C000A37000810370008143700080000000078
:10316C00C12E00082DE9F047164698468A680B696F
:10317C0007469342B8BF1346336091F843200C4680
:10318C00DDF820900AB1013333602368990642BF01
:10319C00336802333360256815F0060506D104F157
:1031AC00190AE36832689B1AAB422BDC94F8433063
:1031BC002268003B18BF0123920630D441463846A2
:1031CC0004F14302C847013023D02368226903F07D
:1031DC000603042B14BF002533684FF0000608BF0C
:1031EC00E56804F11A0408BFED1A54F8123C08BF44
:1031FC0025EAE5759342C4BF9B1AED18B5421AD166
:10320C00002008E00123524641463846C8470130A9
:10321C0003D14FF0FF30BDE8F0870135C1E7302016
:10322C00E11881F843005A1C94F8451022440233EB
:10323C0082F84310C2E70123224641463846C8476C
:10324C000130E6D00136D9E72DE9FF470F7E9146D4
:10325C00782F80460C469A460C9E01F1430207D803
:10326C00622F0AD8002F00F0D380582F00F0BA80BC
:10327C0004F1420684F842703AE0A7F16303152B7F
:10328C00F6D801A151F823F0ED3200080133000803
:10329C007D3200087D3200087D3200087D32000846
:1032AC00013300087D3200087D3200087D320008B1
:1032BC007D320008033400082B330008BD330008AE
:1032CC007D3200087D320008253400087D3200086C
:1032DC002B3300087D3200087D320008C53300080E
:1032EC0033681A1D1B68326004F1420684F84230C0
:1032FC0001239EE033682068191D3160060601D554
:10330C001D6803E04506FBD5B3F90050002D03DA28
:10331C002D236D4284F843300A23594811E021686B
:10332C003368080653F8045B02D4490648BFADB2B3
:10333C006F2F336014BF0A2308235148002184F8EF
:10334C0043106668002EA8BF2168A660A4BF21F0B8
:10335C00040121600DB9002E4BD01646B5FBF3F1DC
:10336C0003FB1157C75D06F8017D2F46BB420D4686
:10337C00F4D9082B0BD12368DF0708D523696168C2
:10338C009942DEBF302306F8013C06F1FF36921B52
:10339C0022614B4621464046CDF800A003AAFFF718
:1033AC00E1FE01304AD14FF0FF3004B0BDE8F087A8
:1033BC00236843F0200323607827324884F8457053
:1033CC00236831681F0651F8045B02D45F0648BFBE
:1033DC00ADB23160D90744BF43F0200323601DB167
:1033EC001023ABE72648E9E7236823F0200323608A
:1033FC00F6E71646BDE733682568181D616930602D
:10340C002E061B6801D5196002E06806FBD51980F1
:10341C00002316462361BCE7336800211A1D326075
:10342C001E686268304600F059F808B1801B606075
:10343C0063682361002384F84330AAE73246494687
:10344C0040462369D0470130ADD023689B0713D485
:10345C00E068039B9842B8BF1846A6E701233246A2
:10346C0049464046D04701309DD00135E368039969
:10347C005B1AAB42F2DCEBE7002504F11906F5E729
:10348C001B3700082C370008884210B501EB0204EA
:10349C0002D98442234607D8431EA14208D011F812
:1034AC00012B03F8012FF8E7014602448A4200D1B0
:1034BC0010BD13F8014D02F8014DF7E738B50023A4
:1034CC00054D044608462B60FDF720FC431C02D139
:1034DC002B6803B1236038BD00030020034610B5F0
:1034EC00C9B202449342184601D1002003E004788B
:1034FC0001338C42F6D110BD0A44914200F1FF33E6
:10350C0000D1704710B511F8014B914203F8014FEF
:10351C00F9D110BD2DE9F041804615460C4621B974
:10352C001146BDE8F041FFF739BC2AB9FFF7CCFBD7
:10353C0000242046BDE8F08100F01AF885420646CA
:10354C0002D8B5EB500FF4D829464046FFF726FCBD
:10355C0007460028ECD0B5422A46214628BF324601
:10356C00FFF7CAFF21464046FFF7AEFB3C46E0E7BB
:10357C0051F8043C181F002BBCBF0B58C0187047E7
:10358C00F8B500BFF8BC08BC9E467047F8B500BF44
:08359C00F8BC08BC9E46704714
:1035A40057616974696E6720666F72206E65772053
:1035B4006669726D776172652E2E2E0A0000000016
:1035C40045726173696E672063757272656E7420EB
:1035D4006669726D776172652E2E2E0A00000000F6
:1035E400556E6B6E6F7720436F6D6D616E64210A4B
:1035F40000000000456E74657220426F6F746C6F3A
:1036040061646572206D6F6465210A00437572728E
:10361400656E74206170706C69636174696F6E208B
:103624006669726D776172653A20252E580A00002A
:103634004E6577206669726D776172652064657482
:103644006563746564210A4A756D70696E672074D8
:103654006F206E6577206170706C69636174696F47
:103664006E2E2E0A000000004352432063686563F7
:103674006B206D69736D61746368210A526F6C6CA1
:10368400206261636B20746F206F6C6465722066C6
:1036940069726D776172652E2E2E0A004E6F206658
:1036A40069726D77617265206465746563746564BD
:1036B400210A000048656C6C6F0A0000536F6D6549
:1036C4007468696E672069732077726F6E672077FC
:1036D4006974682043414E210A0000000000000084
:1036E40000000000010203040607080900000000AE
:1036F4000102030402030405060708090A0B0C0D62
:103704000E0F10100102232D302B2000686C4C008A
:1037140065666745464700303132333435363738CD
:10372400394142434445460030313233343536372B
:0C373400383961626364656600000000C3
:083740000CCAFF7F010000002C
:043748003101000843
:04374C000D01000863
:10375000010203040506070000127A0010000000B1
:10376000010000001800002000000000C801002037
:10377000300200209802002000000000000000003D
:103780000000000000000000000000000000000039
:103790000000000000000000000000000000000029
:1037A0000000000000000000000000000000000019
:0437B0000000000015
:108000000000000000000000000000000000000070
:0C80100000000000000000000000000064
:088400000A0000000100000069
:0400000508000D9151
:00000001FF
